:100000000C945F010C94810A0C94560A0C942B0AF0
:100010000C94000A0C94D5090C94AA090C947F093D
:100020000C9454090C9490010C9490010C94900140
:100030000C9490010C9490010C9490010C949001FC
:100040000C9490010C9490010C9490010C949001EC
:100050000C9490010C9490010C9490010C940A095A
:100060000C9490010C94D4080C94AA080C94900160
:100070000C9490010C9490010C9490010C949001BC
:100080000C9490010C9490010C9490010C949001AC
:100090000C9490010C9490010C9490010C9490019C
:1000A0000C9490010C9490010C9490010C9490018C
:1000B0000C9490010C94AC0A0C9490010C94900157
:1000C0000C9490010C9490010C9490010C9490016C
:1000D0000C9490010C9490010C9490010C9490015C
:1000E0000C9490010C94C5050C944F050C943105AB
:1000F0000C9407030C94DF010C9439020C94C20495
:100100000C94FF020C9445050C9403030C943003EB
:100110000C9404050C9414030C941D050C94A30179
:100120000C94D0010C9428030C942C030C9486029C
:100130000C94CC040C94F0040C9492010C942705BC
:100140000C9436030C940A030C94FA040C94F301F7
:100150000C94EF0D0C94F5020C94E8040C9410032D
:100160000C94AC050C940E050C941A030C94B50475
:100170000C9422030C94D6040C9467030C9435035E
:100180000C94BD040C943A030C943B050C94FB02B4
:100190000C9401020C94E0040C941E030000210056
:1001A000240027002A002D00300033000101000048
:1001B000040107010A0100002200250028002B008D
:1001C0002E003100340002010000050108010B017E
:1001D000000020002300260029002C002F00320000
:1001E00000010000030106010901050505050705D9
:1001F00008080808020202020A0A080804040404A3
:1002000001010101010101010303030303030303CE
:10021000040707070C0C0C0C0C0C0C0C020202025D
:1002200006060606060606060B0B0B0B0B0B0B0B46
:1002300001021020200808102040102040800201F8
:1002400002010804020101020408102040808040DD
:1002500020100804020180040201804020100804DC
:10026000020108040201010204081020408001027A
:1002700004081020408000000A0B02090C0D0E0833
:10028000070304010000000000000000000000005F
:10029000000000000000000000000000000000005E
:1002A000000012111000000000000000000000001B
:1002B000000000000000000000000000EF0D11240D
:1002C0001FBECFEFD1E2DEBFCDBF00E00CBF13E019
:1002D000A0E0B2E0EAE5FEE100E00BBF02C007905B
:1002E0000D92AA3BB107D9F724E0AAEBB3E001C015
:1002F0001D92A137B207E1F711E0CFE5D1E000E0B0
:1003000006C021970109802FFE010E94230FCE35E0
:10031000D10780E00807A9F70E94D70A0C942B0F99
:100320000C9400008091C803811107C08091A10046
:100330009091CB03892B8093A1008091C8038260A8
:100340008093C8030895AF92BF92CF92DF92EF924D
:10035000FF920F931F93CF93DF936C017B018B016F
:10036000040F151FEB015E01AE18BF08C017D107BF
:1003700059F06991D601ED91FC910190F081E02D49
:10038000C6011995892B79F7C501DF91CF911F918E
:100390000F91FF90EF90DF90CF90BF90AF900895B6
:1003A000FC01538D448D252F30E0842F90E0821B7B
:1003B000930B541710F0CF96089501970895FC0100
:1003C000918D828D981761F0A28DAE0FBF2FB11D58
:1003D0005D968C91928D9F5F9F73928F90E00895B0
:1003E0008FEF9FEF0895FC01918D828D981731F06A
:1003F000828DE80FF11D858D90E008958FEF9FEFBE
:100400000895FC01918D228D892F90E0805C9F4F93
:10041000821B91098F739927089584ED93E00E94C0
:10042000010221E0892B09F420E0822F0895FC01CC
:10043000A48DA80FB92FB11DA35ABF4F2C91848D45
:1004400090E001968F739927848FA689B7892C93A2
:10045000A089B1898C91837080648C93938D848DF5
:10046000981306C00288F389E02D80818F7D8083F8
:100470000895EF92FF920F931F93CF93DF93EC01B8
:1004800081E0888F9B8D8C8D98131AC0E889F9893B
:10049000808185FF15C09FB7F894EE89FF8960833E
:1004A000E889F98980818370806480839FBF81E0BF
:1004B00090E0DF91CF911F910F91FF90EF90089501
:1004C000F62E0B8D10E00F5F1F4F0F731127E02EDC
:1004D0008C8D8E110CC00FB607FCFACFE889F98914
:1004E000808185FFF5CFCE010E941702F1CFEB8D01
:1004F000EC0FFD2FF11DE35AFF4FF0829FB7F894E8
:100500000B8FEA89FB8980818062CFCFCF93DF9305
:10051000EC01888D8823B9F0AA89BB89E889F9891B
:100520008C9185FD03C0808186FD0DC00FB607FC50
:10053000F7CF8C9185FFF2CF808185FFEDCFCE0183
:100540000E941702E9CFDF91CF91089580E090E0FB
:10055000892B29F00E940D0281110E94000080E089
:1005600090E0892B49F080E090E0892B29F00E94EF
:10057000000081110E94000080E090E0892B49F08A
:1005800080E090E0892B29F00E94000081110E94F8
:10059000000080E090E0892B49F080E090E0892B1A
:1005A00029F00E94000081110C94000008958150F0
:1005B000823108F05AC0E82FF0E08827ED51FD4F56
:1005C0008F4F0C94230F03030703F502FB02FF0276
:1005D00035030A03100314031A031E03220328031E
:1005E0002C033503300336033A03809180008F7764
:1005F000809380000895809180008F7DF9CF809155
:100600008000877FF5CF84B58F7784BD089584B54A
:100610008F7DFBCF8091B0008F778093B0000895DD
:100620008091B0008F7DF9CF809190008F7780937B
:1006300090000895809190008F7DF9CF8091900077
:10064000877FF5CF8091A0008F778093A0000895D9
:100650008091A0008F7DF9CF8091A000877FF5CF9A
:10066000809120018F77809320010895809120014F
:100670008F7DF9CF80912001877FF5CFCF93DF93D6
:10068000282F30E0F901EA58FD4F8491F901E05D2F
:10069000FD4FD491F901E651FE4FC491CC23A1F056
:1006A00081110E94D702EC2FF0E0EE0FFF1FE05304
:1006B000FE4FA591B491EC91ED2381E090E009F417
:1006C00080E0DF91CF91089580E090E0FACF8091B3
:1006D000C80380FF24C082E00E943E0320910302F1
:1006E00030910402220F331F41E050E0019711F0D6
:1006F00050E040E0242B352B30930402209303027A
:1007000080910302909104028115904809F054C031
:100710008091BE03811150C081E08093BE0380911F
:100720001502823008F47CC08091C80381FF6DC03F
:1007300083E00E943E032091010230910202220FC9
:10074000331F41E050E0019711F050E040E0242BCE
:10075000352B309302022093010280910102909187
:1007600002028115904829F48091BC03882309F482
:1007700049C080910102909102028F3F9F4709F08A
:1007800044C08091BC03882309F43FC01092BC038D
:100790008091C8038D7F8093C8038091BD03882317
:1007A00009F448C08091BE0381112FC01092BD038F
:1007B00081E08093BB0329C08091030290910402E1
:1007C0008F3F9F4709F0ABCF8091BE03882309F488
:1007D000A6CF1092BE038091C8038E7F8093C8037A
:1007E0008091BD03882351F08091BC03811197CF84
:1007F0001092BD0381E08093BB0391CF81E0809391
:10080000D3038DCF81E08093BC038091BE03882306
:1008100039F08091BC03882319F081E08093BD03F7
:100820008091C803811105C08091A100887F8093C9
:10083000A100089581E08093BA03E7CF1F93CF937F
:10084000DF93282F30E0F901EA58FD4F8491F90138
:10085000E05DFD4FD491F901E651FE4FC491CC23E8
:10086000A9F0162F81110E94D702EC2FF0E0EE0FB5
:10087000FF1FEA54FE4FA591B4918FB7F894EC9105
:10088000111108C0D095DE23DC938FBFDF91CF918B
:100890001F910895DE2BF8CFCF93DF9390E0FC01FA
:1008A000E05DFD4F249186519E4FFC018491882389
:1008B000D1F090E0880F991FFC01E456FE4FA591FE
:1008C000B491FC01EA54FE4FC591D491623071F4A9
:1008D0009FB7F8943C91822F809583238C93E88175
:1008E0002E2B28839FBFDF91CF9108958FB7F89467
:1008F000EC912E2B2C938FBFF6CF1F93CF93DF93CA
:10090000182FEB0161E00E944C04209739F460E05D
:10091000812FDF91CF911F910C941E04CF3FD10501
:1009200011F461E0F5CFE12FF0E0EA58FD4FE491DA
:10093000E150E23108F0B3C0F0E08827ED55FB4FFD
:100940008F4F0C94230FB504BD04C204CC04D6040D
:100950004F05E004E804F004FA0404050E051D0543
:1009600027054F0531053B05450584B5806884BDE5
:10097000C7BDDF91CF911F91089584B5806284BD7A
:10098000C8BDF7CF80918000806880938000D093AD
:100990008900C0938800EDCF8091800080628093B1
:1009A0008000D0938B00C0938A00E3CF80918000B9
:1009B000886080938000D0938D00C0938C00D9CF45
:1009C0008091B00080688093B000C093B300D1CF15
:1009D0008091B00080628093B000C093B400C9CF12
:1009E00080919000806880939000D0939900C0938C
:1009F0009800BFCF80919000806280939000D09348
:100A00009B00C0939A00B5CF80919000886080933E
:100A10009000D0939D00C0939C00ABCF8091A0002C
:100A200080688093A0008091A0008F7B8093A000BD
:100A3000D093A900C093A8009CCF8091A0008062B1
:100A40008093A000D093AB00C093AA0092CF809176
:100A5000A00088608093A000D093AD00C093AC004C
:100A600088CF80912001806880932001D093290154
:100A7000C09328017ECF8091200180628093200165
:100A8000D0932B01C0932A0174CF809120018860FC
:100A900080932001D0932D01C0932C016ACFC038E0
:100AA000D1050CF03ECF33CF3FB7F8948091C4030B
:100AB0009091C503A091C603B091C70326B5A89B2A
:100AC00005C02F3F19F00196A11DB11D3FBFBA2FE0
:100AD000A92F982F8827BC01CD01620F711D811DA0
:100AE000911D42E0660F771F881F991F4A95D1F725
:100AF00008958F929F92AF92BF92CF92DF92EF9222
:100B0000FF926B017C010E9454054B015C01C114F2
:100B1000D104E104F104B9F00E945405681979097F
:100B20008A099B09683E73408105910580F321E0A5
:100B3000C21AD108E108F10888EE880E83E0981EF9
:100B4000A11CB11CE4CFFF90EF90DF90CF90BF903D
:100B5000AF909F908F9008950895CF93C1E0C827DC
:100B6000442331F06C2F89E20E941E046C2F07C0D1
:100B7000662349F06C2F89E20E941E0461E08BE13C
:100B8000CF910C941E0461E0EECF8091C8038111D7
:100B900007C08091A1009091CB03892B8093A10085
:100BA0008091C80381608093C8030895FC0101907F
:100BB0000020E9F73197AF01481B590BBC0184EDC8
:100BC00093E00C94A3018F929F92AF92BF920F93E8
:100BD0001F93CF93DF93CDB7DEB7A1970FB6F894ED
:100BE000DEBF0FBECDBF19A2423008F44AE08E012D
:100BF0000F5D1F4F842E912CB12CA12CA5019401C7
:100C00000E94F20EE62FB901CA01EA30F4F4E05D69
:100C1000D801EE938D01232B242B252B79F790E01F
:100C200080E0109719F0CD010E94D605A1960FB66D
:100C3000F894DEBF0FBECDBFDF91CF911F910F9112
:100C4000BF90AF909F908F900895E95CE1CF0C9496
:100C5000D605CF93DF930E94D605EC018CE292E09B
:100C60000E94D6058C0F9D1FDF91CF910895CF92E2
:100C7000DF92EF92FF92CF93DF936C01990FEE0812
:100C8000FF08F7FE19C06DE284ED93E00E9439027F
:100C9000EC0166277727CB016C197D098E099F0926
:100CA0004AE00E94E3058C0F9D1FDF91CF91FF90DA
:100CB000EF90DF90CF9008954AE0C701B601DF9131
:100CC000CF91FF90EF90DF90CF900C94E305682FC9
:100CD00070E090E080E04AE00C94E305CF93DF936E
:100CE0000E946706EC018CE292E00E94D6058C0F10
:100CF0009D1FDF91CF910895CF92DF92EF92FF92E7
:100D00006B017C01C114D104E104F10441F00E94A3
:100D1000680EA70196010E94C00E6B017C01C701FD
:100D2000B601FF90EF90DF90CF900895CF92DF92C1
:100D3000EF92FF926B017C01C216D306E406F50622
:100D400064F4CA01B9016C197D098E099F090E94DA
:100D50007C06C60ED71EE81EF91EC701B601FF901D
:100D6000EF90DF90CF9008952F923F924F925F9235
:100D70006F927F928F929F92AF92BF92CF92DF92AB
:100D8000EF92FF920F931F93CF93DF9300D000D089
:100D900000D01F92CDB7DEB78A87698761E08DE00A
:100DA0000E941E0449856A8581E00E94AD0565E6C2
:100DB00070E080E090E00E947C06312C212C6C33A6
:100DC0007105810591050CF059C010E000E0312C4F
:100DD000212C24E2E22EF12C39E2C32ED12C9701F2
:100DE000201B310B2B30310514F02AE030E02F5F4F
:100DF0003F4F032E000C440B550B65E070E080E084
:100E000090E00E9496062B019601201B310B261BB9
:100E1000370B2B30310514F02AE030E02F5F3F4FC5
:100E2000032E000C440B550B65E070E080E090E071
:100E30000E9496064B01B201052C000C880B990B01
:100E40000E94790549856A8580E00E94AD05B4015C
:100E5000092C000C880B990B0E94790549856A853D
:100E600081E00E94AD05040D151D080D191D2FEF21
:100E7000221A320A0F3111050CF4B1CF21EE31E004
:100E800040E050E068E770E080E090E00E94960665
:100E90006B01643971050CF495C065E670E080E083
:100EA00090E00E947C0665317105810591050CF08A
:100EB00089C0960125523109032E000C440B550BB5
:100EC00065E070E080E090E00E9496062B01788754
:100ED0006F83072E000C880B990B0E94790510E098
:100EE00000E01A82198226E130E0201B310B2B3002
:100EF000310514F02AE030E02F5F3F4F032E000C45
:100F0000440B550B65E070E080E090E00E9496068F
:100F10004B012BE130E0201B310B261B370B2B3014
:100F2000310514F02AE030E02F5F3F4F032E000C14
:100F3000440B550B65E070E080E090E00E9496065F
:100F40006B837C838D839E8349856A8580E00E94C4
:100F5000AD05B401092C000C880B990B0E94790592
:100F600049856A8581E00E94AD052B813C81B901EC
:100F7000330F880B990B0E947905080D191D8B8181
:100F80009C81080F191F29813A812F5F3F4F3A83B7
:100F90002983013111050CF4A6CFC418D508C01A55
:100FA000D10A8F819885883791052CF498E7C91666
:100FB000D1040CF4BEC0B601DD0C880B990B0E9465
:100FC000790508C0B601DD0C880B990B0E947905E4
:100FD0001A82198260E08DE00E941E0449856A85AC
:100FE00080E00E94AD0565E670E080E090E00E9440
:100FF0007C0668327105810591050CF057C010E040
:1010000000E086E1E82EF12C9BE1C92ED12C97015E
:10101000201B310B2B30310514F02AE030E02F5F1C
:101020003F4F032E000C440B550B65E070E080E051
:1010300090E00E9496062B019601201B310B261B87
:10104000370B2B30310514F02AE030E02F5F3F4F93
:10105000032E000C440B550B65E070E080E090E03F
:101060000E9496064B01B201052C000C880B990BCF
:101070000E94790549856A8581E00E94AD05B40129
:10108000092C000C880B990B0E94790549856A850B
:1010900080E00E94AD05040D151D080D191D2FEFF0
:1010A000221A320A013111050CF4B1CF8091D1031B
:1010B0008F5F8093D1033985311146C08A8588239B
:1010C000E9F18091D0038F5F8093D0038FE292E0AB
:1010D0000E9427068091D1030E94670682E492E075
:1010E0000E942706C1010E94370680E592E00E9417
:1010F000270689819A810E9437068CE292E02A961F
:101100000FB6F894DEBF0FBECDBFDF91CF911F9118
:101110000F91FF90EF90DF90CF90BF90AF909F9096
:101120008F907F906F905F904F903F902F900C9496
:10113000D60568E770E080E090E041CF8091CF0372
:101140008F5F8093CF03C2CF8091CE038F5F809358
:10115000CE03BCCF1F920F920FB60F9211240BB685
:101160000F922F933F934F935F936F937F938F9340
:101170009F93AF93BF93EF93FF9384ED93E00E940F
:101180001702FF91EF91BF91AF919F918F917F9146
:101190006F915F914F913F912F910F900BBE0F90E8
:1011A0000FBE0F901F9018951F920F920FB60F92BF
:1011B00011240BB60F922F938F939F93EF93FF936E
:1011C000E091E403F091E5038081E091EA03F0917E
:1011D000EB0382FD1DC090818091ED038F5F8F73C3
:1011E0002091EE03821741F0E091ED03F0E0EC5224
:1011F000FC4F958F8093ED03FF91EF919F918F911D
:101200002F910F900BBE0F900FBE0F901F9018954F
:101210008081F2CF1F920F920FB60F9211242F935D
:101220003F938F939F93AF93BF938091C00390910F
:10123000C103A091C203B091C3033091BF0323E067
:10124000230F2D3758F50196A11DB11D2093BF0323
:101250008093C0039093C103A093C203B093C303D0
:101260008091C4039091C503A091C603B091C703B8
:101270000196A11DB11D8093C4039093C503A09353
:10128000C603B093C703BF91AF919F918F913F91D8
:101290002F910F900FBE0F901F90189526E8230FE7
:1012A0000296A11DB11DD2CF1F920F920FB60F92C1
:1012B00011240BB60F922F933F934F935F936F932D
:1012C0007F938F939F93AF93BF93EF93FF93E0919F
:1012D0001302F09114021995FF91EF91BF91AF9114
:1012E0009F918F917F916F915F914F913F912F913E
:1012F0000F900BBE0F900FBE0F901F9018951F926E
:101300000F920FB60F9211240BB60F922F933F93AB
:101310004F935F936F937F938F939F93AF93BF93FD
:10132000EF93FF93E0911102F09112021995FF9152
:10133000EF91BF91AF919F918F917F916F915F914D
:101340004F913F912F910F900BBE0F900FBE0F90BA
:101350001F9018951F920F920FB60F9211240BB683
:101360000F922F933F934F935F936F937F938F933E
:101370009F93AF93BF93EF93FF93E0910702F09198
:1013800008021995FF91EF91BF91AF919F918F91B5
:101390007F916F915F914F913F912F910F900BBE75
:1013A0000F900FBE0F901F9018951F920F920FB6BF
:1013B0000F9211240BB60F922F933F934F935F938D
:1013C0006F937F938F939F93AF93BF93EF93FF930D
:1013D000E0910502F09106021995FF91EF91BF91FE
:1013E000AF919F918F917F916F915F914F913F91BD
:1013F0002F910F900BBE0F900FBE0F901F9018955E
:101400001F920F920FB60F9211240BB60F922F93CB
:101410003F934F935F936F937F938F939F93AF937C
:10142000BF93EF93FF93E0910F02F0911002199593
:10143000FF91EF91BF91AF919F918F917F916F91AC
:101440005F914F913F912F910F900BBE0F900FBE68
:101450000F901F9018951F920F920FB60F921124A4
:101460000BB60F922F933F934F935F936F937F939E
:101470008F939F93AF93BF93EF93FF93E0910D02F0
:10148000F0910E021995FF91EF91BF91AF919F914D
:101490008F917F916F915F914F913F912F910F901D
:1014A0000BBE0F900FBE0F901F9018951F920F92BA
:1014B0000FB60F9211240BB60F922F933F934F93B9
:1014C0005F936F937F938F939F93AF93BF93EF93AC
:1014D000FF93E0910B02F0910C021995FF91EF91AF
:1014E000BF91AF919F918F917F916F915F914F913C
:1014F0003F912F910F900BBE0F900FBE0F901F903A
:1015000018951F920F920FB60F9211240BB60F92DF
:101510002F933F934F935F936F937F938F939F93FB
:10152000AF93BF93EF93FF93E0910902F0910A020A
:101530001995FF91EF91BF91AF919F918F917F91FD
:101540006F915F914F913F912F910F900BBE0F9034
:101550000FBE0F901F9018951F920F920FB60F920B
:1015600011240BB60F922F933F934F935F936F937A
:101570007F938F939F93AF93BF93EF93FF93E091EC
:10158000CC03F091CD031995FF91EF91BF91AF91ED
:101590009F918F917F916F915F914F913F912F918B
:1015A0000F900BBE0F900FBE0F901F901895789460
:1015B00084B5826084BD84B5816084BD85B5826058
:1015C00085BD85B5816085BD80916E008160809309
:1015D0006E00109281008091810082608093810072
:1015E0008091810081608093810080918000816082
:1015F000809380008091B10084608093B1008091DD
:10160000B00081608093B0008091910082608093EF
:101610009100809191008160809391008091900071
:101620008160809390008091A10082608093A100EE
:101630008091A10081608093A1008091A0008160D1
:101640008093A0008091210182608093210180918C
:10165000210181608093210180912001816080932C
:10166000200180917A00846080937A0080917A00D2
:10167000826080937A0080917A00816080937A0002
:1016800080917A00806880937A001092C10061E0B6
:1016900089E20E944C0461E08BE10E944C0461E00D
:1016A0008DE00E944C0461E08BE00E944C0461E0FC
:1016B00087E00E944C0461E086E00E944C0461E0F7
:1016C00089E20E941E0461E08BE10E941E0460E03A
:1016D0008DE00E941E046FEF70E08BE00E947D049D
:1016E0006FEF70E087E00E947D046FEF70E086E0AE
:1016F0000E947D0461E089E20E941E04E091E403FF
:10170000F091E50382E08083E091E003F091E10352
:101710001082E091E203F091E3038FEC808310925A
:10172000EC03E091E803F091E90386E08083E09127
:10173000E603F091E703808180618083E091E60316
:10174000F091E703808188608083E091E603F09167
:10175000E703808180688083E091E603F091E703EE
:1017600080818F7D80838DE592E00E94290683E849
:1017700092E00E94270689E20E946E0680EA92E0CB
:101780000E9427068BE10E946E068DEB92E00E947C
:1017900029066AE070E080E090E00E94790562E04E
:1017A00082E00E944C0481E0809315021092A00018
:1017B00090E19093A1008093CB0320E43FE130932C
:1017C000CA032093C9033093A7002093A6009091E9
:1017D000A100987F9093A1009091A10091609093B7
:1017E000A10027E633E03093CD032093CC03809310
:1017F000720078948091A1009091CB03892B809303
:10180000A1008091A100887F8093A1001092C8035D
:1018100085EC95E0909306028093050280916A0022
:101820008C7F826080936A00EC9A82E991E09093C9
:1018300008028093070280916A00837F886080930A
:101840006A00ED9A8091A100887F8093A100109298
:10185000C8036AE070E080E090E00E947905D0E083
:10186000C0E084ED93E00E940102892B49F084EDF1
:1018700093E00E94DF01DC2FCC27C80FD91FF1CFE6
:1018800086ED92E00E942706CE010E9437068CE288
:1018900092E00E94D605BE01DD0F880B990B611501
:1018A00071058105910511F00E94B70E6AE070E0A4
:1018B00080E090E00E9479058EE292E00E94290685
:1018C00086EE92E00E94290687E093E00E942706B8
:1018D0008091D0030E9467068BE093E00E94270668
:1018E0008091CF030E9467068BE093E00E94270659
:1018F0008091CE030E9467068FE093E00E94290644
:101900008EE292E00E94290683E193E00E9429067C
:1019100001E08091D303882309F44FC11092D303CF
:101920001092D2036FEF70E08BE00E947D046FEFA6
:1019300070E087E00E947D0470E060E086E00E9435
:101940007D041092D10364E170E080E090E00E9499
:10195000790570E060E08BE00E947D046FEF70E03D
:1019600087E00E947D046FEF70E086E00E947D04B6
:101970008091D1038A3208F0E0C0833008F0B6C00D
:10198000813009F4A5C0823009F4A9C060E081E08B
:101990000E94B40684E393E00E94290622EC31E021
:1019A00040E050E06AEF70E080E090E00E94960630
:1019B0006B01EB0165E670E080E090E00E947C0640
:1019C00065317105810591050CF0B0C065E670E0E8
:1019D00080E090E00E947C0611E06734710581058B
:1019E00091050CF010E065E670E080E090E00E9468
:1019F0007C06BB24B39465317105810591050CF01B
:101A0000B12CCB30D1050CF446C09E0125503109D4
:101A1000032E000C440B550B65E070E080E090E075
:101A20000E9496066B01C61BD70B9E01CB30D105D9
:101A300014F02AE030E0032E000C440B550B65E057
:101A400070E080E090E00E9496062B01B601DD0C6C
:101A5000880B990B0E9479054B2D612F81E00E9424
:101A6000AD05B201052C000C880B990B0E9479057D
:101A70004B2D612F80E00E94AD05C419D50965E6A4
:101A800070E080E090E00E947C0665317105810580
:101A900091050CF49BCF87E093E00E94270680918C
:101AA000D0030E9467068BE093E00E942706809196
:101AB000CF030E9467068BE093E00E942706809187
:101AC000CE030E9467068FE093E00E94290650CF64
:101AD00060E080E00E94B40681E493E05DCF61E0C5
:101AE00081E00E94B4068FE493E056CF65E670E093
:101AF00080E090E00E947C066531710581059105CA
:101B00002CF461E081E00E94B40648CF65E670E005
:101B100080E090E00E947C066734710581059105A4
:101B200014F460E0EFCF60E080E0EDCFB601DD0CB3
:101B3000880B990B0E947905AECF8091D203811159
:101B40001EC00093D2038EE593E00E942706809189
:101B5000D0030E946E0685E793E00E9427068091DD
:101B6000CF030E946E068CE893E00E9427068091C6
:101B7000CE030E946E068FE993E00E9429068091B1
:101B8000D30381111AC061E089E20E941E046FEF45
:101B900070E08BE00E947D0470E060E087E00E94CE
:101BA0007D0460E870E086E00E947D0464E670E0F9
:101BB00080E090E00E947905E2CF6FEF70E08BE06B
:101BC0000E947D0470E060E087E00E947D046FEF7A
:101BD00070E086E00E947D040E94A6029ACEE4EDA9
:101BE000F3E01382128288EE93E0A0E0B0E08483F9
:101BF0009583A683B7838EE192E09183808385EC01
:101C000090E09587848784EC90E09787868780ECC6
:101C100090E0918B808B81EC90E0938B828B82ECB7
:101C200090E0958B848B86EC90E0978B868B118E61
:101C3000128E138E148E08958F929F92AF92BF9240
:101C4000CF92DF92EF92FF92CF93DF93EC01688106
:101C500079818A819B81611571058105910521F446
:101C600064E279ED8BE597E02DE133EF41E050E060
:101C70000E94C00E49015A019B01AC01A7EAB1E4E0
:101C80000E94DF0E6B017C01ACEEB4EFA501940164
:101C90000E94ED0EC60ED71EE81EF91EF7FE06C006
:101CA00081E0C81AD108E10880E8F80AC882D98220
:101CB000EA82FB82C701B6019F77DF91CF91FF9047
:101CC000EF90DF90CF90BF90AF909F908F9008954E
:101CD0008F929F92AF92BF92CF92DF92EF92FF923C
:101CE000609116027091170280911802909119026A
:101CF000611571058105910521F464E279ED8BE5AB
:101D000097E02DE133EF41E050E00E94C00E490121
:101D10005A019B01AC01A7EAB1E40E94DF0E6B01FE
:101D20007C01ACEEB4EFA50194010E94ED0EC60E4D
:101D3000D71EE81EF91EF7FE06C081E0C81AD108BA
:101D4000E10880E8F80AC0921602D0921702E092E9
:101D50001802F0921902C701B6019F77FF90EF9029
:101D6000DF90CF90BF90AF909F908F900895609339
:101D70001602709317028093180290931902089527
:101D8000052E97FB1EF400940E94D70E57FD07D036
:101D90000E94F20E07FC03D04EF40C94D70E50951F
:101DA0004095309521953F4F4F4F5F4F0895909547
:101DB0008095709561957F4F8F4F9F4F08950E943A
:101DC000140FA59F900DB49F900DA49F800D911DA1
:101DD00011240895B7FF0C94DF0E0E94DF0E821BC2
:101DE000930B0895A1E21A2EAA1BBB1BFD010DC087
:101DF000AA1FBB1FEE1FFF1FA217B307E407F507BB
:101E000020F0A21BB30BE40BF50B661F771F881F96
:101E1000991F1A9469F760957095809590959B012C
:101E2000AC01BD01CF010895A29FB001B39FC001D5
:101E3000A39F700D811D1124911DB29F700D811DF6
:101E40001124911D0895EE0FFF1F881F8BBF07906F
:0A1E5000F691E02D1994F894FFCFED
:101E5A0001FFFFFFFFAC05AC05AC05AC05AC05AC5A
:101E6A0005AC05AC050101000000000000003902C4
:101E7A00A301D00186020102DF01F3010D0A0074F9
:101E8A006F74616C206B6579707265737365733AF0
:101E9A0020003B202020626F756E6365733A200034
:101EAA002C2020687370696B65733A200057656C43
:101EBA00636F6D6520746F20746865206B65792D7A
:101ECA006465626F756E6365207465737465722EDE
:101EDA002E2E004F757470757431206973206765F2
:101EEA006E657261746564206F6E2070696E200081
:101EFA004F7574707574322069732067656E6572E8
:101F0A0061746564206F6E2070696E2000206B65B5
:101F1A007970726573732069732061637469766579
:101F2A00206C6F772E0052616E646F6D2073656549
:101F3A0064206973200023707265737365732028A7
:101F4A00706230202F20706231202F20646F7562FA
:101F5A006C65293A20200020282000202F2000200C
:101F6A0029200020707265737320627574746F6E15
:101F7A002030202853746172742920746F2073747E
:101F8A00617274002A2020206C696E652030202A34
:101F9A00002A2A20206C696E652031202A2A002A0C
:101FAA002A2A20646F75626C65202A2A2A00232057
:101FBA0070726573736573206F6E204F75747075D8
:101FCA0074313A2000232070726573736573206F31
:101FDA006E204F7574707574323A20002320646F36
:101FEA0075626C6520707265737365733A20002A96
:101FFA002A2A2A2A2A2A2A66696E69736865642A3D
:0A200A002A2A2A2A2A2A2A2A00007C
:00000001FF
